:100000000C942A000C9499170C94C6170C94F317AF
:100010000C9447000C9447000C9447000C94470044
:100020000C9447000C9447000C9447000C94470034
:100030000C9447000C9447000C9447000C94470024
:100040000C9447000C9447000C9447000C94470014
:100050000C94470011241FBECFE5D8E0DEBFCDBF12
:1000600012E0A0E6B0E0E4E8F1E402C005900D92F1
:10007000A836B107D9F712E0A8E6B2E001C01D9298
:10008000A03FB107E1F70E94841D0C94C0200C949E
:100090000000EF92FF920F931F937B018C0120E0F1
:1000A00030E040E05FE40E94F50388238CF0C80153
:1000B000B70120E030E040E05FE40E94C1010E940F
:1000C000B3049B01AC01205030404040504806C072
:1000D000C801B7010E94B3049B01AC01B901CA0178
:1000E0001F910F91FF90EF900895A0E0B0E0EBE733
:1000F000F0E00C94E81DDC012B01FA019C91923098
:1001000008F439C1EB018881823008F433C194309E
:1001100069F4843009F02FC111969C91119789815F
:10012000981709F428C1A7E2B1E025C1843009F489
:1001300021C18230A9F4923009F01DC19A01AD01AC
:1001400088E0EA010990AE01E90109929E0181501F
:10015000C1F7E201898111969C918923818308C1AD
:10016000923009F407C112962D903C901397EB0141
:100170008A819B811496AD90BD90CD90DC901797AD
:10018000EC80FD800E811F819101281B390BB90184
:1001900037FF04C066277727621B730B6032710537
:1001A0000CF061C0121613066CF537014801062EDB
:1001B00004C096948794779467940A94D2F721E0C8
:1001C00030E040E050E004C0220F331F441F551FB1
:1001D0006A95D2F721503040404050402E213F21B7
:1001E00040235123211531054105510521F021E01E
:1001F00030E040E050E079018A01E628F72808293C
:1002000019293CC0232BD1F1260E371E350146019A
:10021000062E04C096948794779467940A94D2F734
:1002200021E030E040E050E004C0220F331F441FC3
:10023000551F6A95D2F721503040404050402A2146
:100240003B214C215D21211531054105510521F04E
:1002500021E030E040E050E059016A01A628B728CB
:10026000C828D9280BC0821593052CF01C01AA249C
:10027000BB24650103C0EE24FF24870111969C91E5
:10028000D20111968C91981709F445C0992339F041
:10029000A80197012A193B094C095D0906C0A6016E
:1002A00095012E193F09400B510B57FD08C01182D3
:1002B0003382228224833583468357831DC081E0A5
:1002C00081833382228288279927DC01821B930B4A
:1002D000A40BB50B84839583A683B7830DC0220F2F
:1002E000331F441F551F24833583468357838281E0
:1002F000938101979383828324813581468157813D
:10030000DA01C9010197A109B1098F5F9F4FAF4F72
:10031000BF4328F30BC0918333822282EA0CFB1C7B
:100320000C1D1D1DE482F5820683178383E0808304
:10033000248135814681578157FF1AC0C901AA27F8
:1003400097FDA095BA2F81709070A070B0705695EF
:10035000479537952795822B932BA42BB52B848318
:100360009583A683B7838281938101969383828349
:10037000DF0101C0D201CD01CDB7DEB7E2E10C94BF
:10038000041EA0E2B0E0E7ECF1E00C94F41D6983F8
:100390007A838B839C832D833E834F835887E9E048
:1003A000EE2EF12CEC0EFD1ECE010196B7010E943F
:1003B0002B068E010F5E1F4FCE010596B8010E94DD
:1003C0002B068A8991E089278A8BC701B801AE0183
:1003D000475E5F4F0E9475000E945605A096E6E0BA
:1003E0000C94101EA0E2B0E0E8EFF1E00C94F41DD4
:1003F00069837A838B839C832D833E834F835887C5
:10040000F9E0EF2EF12CEC0EFD1ECE010196B701A6
:100410000E942B068E010F5E1F4FCE010596B8017C
:100420000E942B06C701B801AE01475E5F4F0E94D4
:1004300075000E945605A096E6E00C94101EA0E2FE
:10044000B0E0E5E2F2E00C94E81D69837A838B83E7
:100450009C832D833E834F835887CE010196BE0136
:10046000675F7F4F0E942B06CE010596BE016F5E2F
:100470007F4F0E942B069985923088F089898230BF
:10048000C8F0943019F4823051F404C0843029F457
:10049000923081F487E291E0C6C0923049F420E0C6
:1004A0009A858A89981321E02A87CE010996BBC0D4
:1004B000823049F420E09A858A89981321E02A8BBA
:1004C000CE014196B0C02D843E844F8458886D88FB
:1004D0007E888F88988CEE24FF248701AA24BB2471
:1004E000650140E050E060E070E0E0E0F0E0C10174
:1004F00081709070892BE9F0E60CF71C081D191D1E
:100500009A01AB012A0D3B1D4C1D5D1D80E090E062
:10051000A0E0B0E0E614F7040805190520F481E036
:1005200090E0A0E0B0E0BA01A901480F591F6A1F8E
:100530007B1FAA0CBB1CCC1CDD1C97FE08C081E0F5
:1005400090E0A0E0B0E0A82AB92ACA2ADB2A3196B6
:10055000E032F10549F0660C771C881C991C569412
:10056000479437942794C3CFFA85EA892B893C892D
:100570008B859C85280F391F2E5F3F4F17C0CA01FE
:1005800081709070892B61F016950795F794E79428
:1005900080E090E0A0E0B0E8E82AF92A0A2B1B2BC3
:1005A00076956795579547952F5F3F4F77FDE7CF36
:1005B0000CC0440F551F661F771F17FD4160EE0CDE
:1005C000FF1C001F111F21503040403090E05907A0
:1005D00090E0690790E4790760F32B8F3C8FDB0193
:1005E000CA018F779070A070B07080349105A1051A
:1005F000B10561F447FD0AC0E114F10401051105DC
:1006000029F0405C5F4F6F4F7F4F40781A8EFE1786
:1006100011F081E08A8F4D8F5E8F6F8F78A383E01A
:10062000898FCE0149960E945605A096E2E10C946E
:10063000041EA8E1B0E0EFE1F3E00C94F01D698343
:100640007A838B839C832D833E834F835887B9E0C5
:10065000EB2EF12CEC0EFD1ECE010196B7010E948F
:100660002B068E010F5E1F4FCE010596B8010E942A
:100670002B062985223008F47EC03989323010F4E7
:10068000B8017CC08A859A8989278A87243011F02D
:10069000223031F4231709F06EC067E271E06EC0BA
:1006A000343039F41D861E861F86188A1C861B86E8
:1006B00004C0323021F484E08987B7015FC02B8504
:1006C0003C858B899C89281B390B3C872B87ED84C3
:1006D000FE840F851889AD88BE88CF88D88CEA142F
:1006E000FB040C051D0540F4EE0CFF1C001F111F40
:1006F000215030403C872B8720E030E040E050E044
:1007000080E090E0A0E0B0E460E070E0EA14FB0478
:100710000C051D0540F0282B392B4A2B5B2BEA18C2
:10072000FB080C091D09B695A79597958795EE0CC2
:10073000FF1C001F111F6F5F7F4F6F31710531F775
:10074000DA01C9018F779070A070B0708034910584
:10075000A105B10561F427FD0AC0E114F10401050A
:10076000110529F0205C3F4F4F4F5F4F20782D87B8
:100770003E874F87588BBE01675F7F4FCB010E943A
:1007800056056896EAE00C940C1EA8E1B0E0EBEC8C
:10079000F3E00C94F41D69837A838B839C832D830F
:1007A0003E834F83588789E0E82EF12CEC0EFD1E26
:1007B000CE010196B7010E942B068E010F5E1F4FDE
:1007C000CE010596B8010E942B068985823040F043
:1007D0008989823028F0C701B8010E94A30601C0B0
:1007E0008FEF6896E6E00C94101EA8E1B0E0EBEF06
:1007F000F3E00C94F41D69837A838B839C832D83AF
:100800003E834F83588789E0E82EF12CEC0EFD1EC5
:10081000CE010196B7010E942B068E010F5E1F4F7D
:10082000CE010596B8010E942B068985823040F0E2
:100830008989823028F0C701B8010E94A30601C04F
:100840008FEF6896E6E00C94101EA8E1B0E0EBE2B2
:10085000F4E00C94F41D69837A838B839C832D834D
:100860003E834F83588789E0E82EF12CEC0EFD1E65
:10087000CE010196B7010E942B068E010F5E1F4F1D
:10088000CE010596B8010E942B068985823040F082
:100890008989823028F0C701B8010E94A30601C0EF
:1008A00081E06896E6E00C94101EA8E0B0E0EBE56D
:1008B000F4E00C94F11D9B01AC0183E08983DA0123
:1008C000C9018827B7FD83959927AA27BB27B82E8A
:1008D000211531054105510519F482E089833AC09B
:1008E0008823A9F0203080E0380780E0480780E8BE
:1008F000580729F460E070E080E09FEC30C0EE24FF
:10090000FF248701E21AF30A040B150B02C07901D8
:100910008A018EE1C82ED12CDC82CB82ED82FE8250
:100920000F831887C801B7010E94070501971816A1
:10093000190684F4082E04C0EE0CFF1C001F111FC2
:100940000A94D2F7ED82FE820F831887C81AD90A5B
:10095000DC82CB82BA82CE0101960E94560528968F
:10096000E9E00C940D1EACE0B0E0E9EBF4E00C948F
:10097000F81D69837A838B839C83CE010196BE0127
:100980006B5F7F4F0E942B068D81823061F1823038
:1009900050F1843021F48E81882351F12EC02F81B3
:1009A000388537FD20C06E812F3131051CF066235C
:1009B000F9F023C08EE190E0821B930B29853A85E4
:1009C0004B855C8504C056954795379527958A9544
:1009D000D2F76623B1F050954095309521953F4F61
:1009E0004F4F5F4F0EC020E030E040E050E009C0C4
:1009F0002FEF3FEF4FEF5FE704C020E030E040E033
:100A000050E8B901CA012C96E2E00C94141EEF9252
:100A1000FF920F931F937B018C0180E0E81680E02A
:100A2000F80681E0080780E0180788F48FEFE816E1
:100A3000F1040105110531F028F088E090E0A0E014
:100A4000B0E017C080E090E0A0E0B0E012C080E02D
:100A5000E81680E0F80680E0080781E0180728F033
:100A600088E190E0A0E0B0E004C080E190E0A0E088
:100A7000B0E020E230E040E050E0281B390B4A0BA8
:100A80005B0B04C016950795F794E7948A95D2F707
:100A9000F701E15DFE4F8081281B310941095109B1
:100AA000C9011F910F91FF90EF900895DF92EF928F
:100AB000FF920F931F93FC01E480F580068117815C
:100AC000D1808081823048F480E090E0A0E1B0E005
:100AD000E82AF92A0A2B1B2BA5C0843009F49FC0F1
:100AE000823021F4EE24FF24870105C0E114F104D3
:100AF0000105110519F4E0E0F0E096C06281738110
:100B00009FEF623879070CF05BC022E83FEF261BAD
:100B1000370B2A3131052CF020E030E040E050E086
:100B20002AC0B801A701022E04C076956795579593
:100B300047950A94D2F781E090E0A0E0B0E004C0CD
:100B4000880F991FAA1FBB1F2A95D2F70197A109E9
:100B5000B1098E219F21A023B1230097A105B105E2
:100B600021F081E090E0A0E0B0E09A01AB01282BF9
:100B7000392B4A2B5B2BDA01C9018F779070A0705B
:100B8000B07080349105A105B10539F427FF09C083
:100B9000205C3F4F4F4F5F4F04C0215C3F4F4F4F92
:100BA0005F4FE0E0F0E02030A0E03A07A0E04A0725
:100BB000A0E45A0710F0E1E0F0E079018A0127C0D3
:100BC0006038710564F5FB01E158FF4FD801C7019A
:100BD0008F779070A070B07080349105A105B10539
:100BE00039F4E7FE0DC080E490E0A0E0B0E004C07E
:100BF0008FE390E0A0E0B0E0E80EF91E0A1F1B1F93
:100C000017FF05C016950795F794E794319687E08E
:100C100016950795F794E7948A95D1F705C0EE24C9
:100C2000FF248701EFEFF0E06E2F67956627679549
:100C3000902F9F77D794DD24D7948E2F8695492FB8
:100C4000462B582F5D29B701CA011F910F91FF90C4
:100C5000EF90DF900895FC01DB01408151812281FA
:100C6000622F6F7770E0221F2227221F9381892F26
:100C7000880F822B282F30E0991F9927991F1196F2
:100C80009C93119721153105A9F541155105610571
:100C9000710511F482E037C082E89FEF13969C93B0
:100CA0008E9312979A01AB0167E0220F331F441F06
:100CB000551F6A95D1F783E08C930DC0220F331F27
:100CC000441F551F12968D919C911397019713966F
:100CD0009C938E931297203080E0380780E048077D
:100CE00080E4580758F314962D933D934D935C93ED
:100CF000179708952F3F310579F441155105610586
:100D0000710519F484E08C93089564FF03C081E0B9
:100D10008C9312C01C9210C02F57304013963C93F6
:100D20002E93129783E08C9387E0440F551F661F24
:100D3000771F8A95D1F7706414964D935D936D93E8
:100D40007C93179708951F93DC01FB019C919230CF
:100D500008F447C08081823008F443C0943051F4D5
:100D600011961C91843099F58181682F70E0611B88
:100D700071093FC0843021F0923031F48230B9F1F2
:100D80008181882389F12DC011961C9111978230A1
:100D9000F1F081811817D9F412962D913C91139797
:100DA000828193818217930794F028173907BCF04A
:100DB00014968D919D910D90BC91A02D248135812B
:100DC00046815781281739074A075B0718F4112312
:100DD00041F00AC082179307A407B50740F4112316
:100DE00019F061E070E005C06FEF7FEF02C060E0D6
:100DF00070E0CB011F910895DF93CF93CDB7DEB79D
:100E00002E970FB6F894DEBF0FBECDBF80E090E006
:100E1000AAEFB3E48B879C87AD87BE876B857C8503
:100E20008D859E8520E030E04AE755E40E941F0250
:100E3000DC01CB018F839887A987BA876F8178857A
:100E400089859A8520E030E040E85FE30E94250430
:100E500088232CF481E090E09E838D833FC06F81D6
:100E6000788589859A8520E03FEF4FE757E40E9417
:100E7000C50318164CF56B857C858D859E8520E015
:100E800030E040E251E40E941F02DC01CB01BC01D2
:100E9000CD010E944900DC01CB019E838D830FC0F0
:100EA00080E991E09C838B838B819C810197F1F792
:100EB0009C838B838D819E8101979E838D838D8101
:100EC0009E81009769F714C06F81788589859A851E
:100ED0000E944900DC01CB019E838D838D819E8120
:100EE0009A83898389819A810197F1F79A8389830B
:100EF0000E9420180E942E1880ED60E00E94851943
:100F000087E00E943E1880E00E943E180E947318FD
:100F10002E960FB6F894DEBF0FBECDBFCF91DF91F6
:100F20000895DF93CF93CDB7DEB727970FB6F89428
:100F3000DEBF0FBECDBF9A83898389819A8120E766
:100F400032E03C832B839E838D8339E03F83ED81A8
:100F5000FE8100802D813E812F5F3F4F3E832D8398
:100F6000EB81FC8100822B813C812F5F3F4F3C83D2
:100F70002B833F8131503F838F81882341F78091BC
:100F80007602813061F480917002806480937002F7
:100F90009091700280917702892B809370020E9459
:100FA0002E1880ED60E00E94851980E00E943E18B6
:100FB000809172020E943E18809171020E943E1838
:100FC000809170020E943E18809178020E943E1823
:100FD000809173020E943E18809174020E943E1814
:100FE000809175020E943E180E94731827960FB6D2
:100FF000F894DEBF0FBECDBFCF91DF910895DF9390
:10100000CF9300D0CDB7DEB79A8389830E942E1884
:1010100080ED60E00E94851980E00E943E180E94E9
:101020002E1881ED0E943E1881E00E945518E9813A
:10103000FA81828381E00E945518E981FA818183D7
:1010400081E00E945518E981FA81808380917602BF
:10105000813071F4E981FA8180818072E981FA81BD
:101060008783E981FA8180818F71E981FA818083A8
:1010700081E00E945518E981FA81808781E00E9411
:101080005518E981FA81838381E00E945518E9812E
:10109000FA81848380E00E945518E981FA81858372
:1010A0000E9473180F900F90CF91DF910895DF93F6
:1010B000CF93CDB7DEB72C970FB6F894DEBF0FBE37
:1010C000CDBF9E838D8378876F835A87498780E65B
:1010D00090E09A838983ED81FE818781803229F4B3
:1010E00081E690E09A83898304C084E690E09A8345
:1010F0008983809176028130C1F5ED81FE81808106
:10110000482F50E0ED81FE818181682F70E0ED81F4
:10111000FE818281282F30E08DB79EB70C970FB6E5
:10112000F8949EBF0FBE8DBFEDB7FEB7319689858F
:101130009A859183808387E690E0938382835583A9
:101140004483778366833187208789819A81938757
:1011500082870E941F1E2DB73EB7245F3F4F0FB6F8
:10116000F8943EBF0FBE2DBF37C0ED81FE81808158
:10117000482F50E0ED81FE818181682F70E0ED8184
:10118000FE818281282F30E08DB79EB70C970FB675
:10119000F8949EBF0FBE8DBFEDB7FEB7319689851F
:1011A0009A859183808387E690E093838283558339
:1011B0004483778366833187208781E890E0938733
:1011C00082870E941F1E2DB73EB7245F3F4F0FB688
:1011D000F8943EBF0FBE2DBFED81FE818085282F84
:1011E00030E03C872B878B859C8583309105E9F126
:1011F0002B853C85243031057CF48B859C858130A2
:10120000910549F12B853C85223031054CF58B85C4
:101210009C850097D9F032C02B853C85253031055F
:1012200059F08B859C858530910524F12B853C8573
:101230002630310531F022C084E890E09C838B8316
:101240001DC088E890E09C838B8318C08CE890E0F8
:101250009C838B8313C080E990E09C838B830EC0BA
:1012600084E990E09C838B8309C088E990E09C83AB
:101270008B8304C08CE990E09C838B83ED81FE819D
:101280008381482F50E0ED81FE818481682F70E0DA
:10129000ED81FE818581282F30E08DB79EB70C97B8
:1012A0000FB6F8949EBF0FBE8DBFEDB7FEB7319657
:1012B0008F8198859183808380EA90E093838283F5
:1012C0005583448377836683318720878B819C8114
:1012D000938782870E941F1E2DB73EB7245F3F4F22
:1012E0000FB6F8943EBF0FBE2DBF2C960FB6F894E4
:1012F000DEBF0FBECDBFCF91DF910895DF93CF93B7
:10130000CDB7DEB76C970FB6F894DEBF0FBECDBF7A
:1013100080E090E0A0EAB1E4898F9A8FAB8FBC8F18
:10132000698D7A8D8B8D9C8D20E030E04AE755E405
:101330000E941F02DC01CB018D8B9E8BAF8BB88F7F
:101340006D897E898F89988D20E030E040E85FE3E9
:101350000E94250488232CF481E090E09C8B8B8BE9
:101360003FC06D897E898F89988D20E03FEF4FE7E0
:1013700057E40E94C50318164CF5698D7A8D8B8D44
:101380009C8D20E030E040E251E40E941F02DC012D
:10139000CB01BC01CD010E944900DC01CB019C8B3B
:1013A0008B8B0FC080E991E09A8B898B89899A8910
:1013B0000197F1F79A8B898B8B899C8901979C8B7C
:1013C0008B8B8B899C89009769F714C06D897E8906
:1013D0008F89988D0E944900DC01CB019C8B8B8BFF
:1013E0008B899C89988B8F878F8598890197F1F7D6
:1013F000988B8F87A7E3B0E0E7E3F0E0808181601E
:101400008C93A7E3B0E0E7E3F0E0808182608C9307
:10141000A7E3B0E0E7E3F0E0808184608C93A7E38A
:10142000B0E0E7E3F0E0808180618C93AAE3B0E074
:10143000EAE3F0E080818C608C93ABE3B0E0EBE317
:10144000F0E08081837F8C9380E090E0A0E0B0E4C6
:101450008B879C87AD87BE876B857C858D859E85B8
:1014600020E030E04AE755E40E941F02DC01CB0196
:101470008F839887A987BA876F81788589859A85B0
:1014800020E030E040E85FE30E94250488232CF44C
:1014900081E090E09E838D833FC06F817885898550
:1014A0009A8520E03FEF4FE757E40E94C5031816E6
:1014B0004CF56B857C858D859E8520E030E040E293
:1014C00051E40E941F02DC01CB01BC01CD010E944E
:1014D0004900DC01CB019E838D830FC080E991E040
:1014E0009C838B838B819C810197F1F79C838B83F9
:1014F0008D819E8101979E838D838D819E81009732
:1015000069F714C06F81788589859A850E944900A2
:10151000DC01CB019E838D838D819E819A8389839B
:1015200089819A810197F1F79A83898382E00E94E9
:10153000B00A88E20E94B00A86E00E94B00A80E801
:101540000E94B00A8FE00E94B00A0E94FC0C6C96C8
:101550000FB6F894DEBF0FBECDBFCF91DF910895D7
:10156000DF93CF93CDB7DEB761970FB6F894DEBFA8
:101570000FBECDBF8983898188234CF4A8E3B0E0F6
:10158000E8E3F0E0808180618C938C9108C0A8E34F
:10159000B0E0E8E3F0E080818F7E8C938C918981CC
:1015A000882F90E080749070009749F0A8E3B0E035
:1015B000E8E3F0E0808184608C938C9108C0A8E31C
:1015C000B0E0E8E3F0E080818B7F8C938C9189819F
:1015D000882F90E080729070009749F0A8E3B0E007
:1015E000E8E3F0E0808182608C938C9108C0A8E3EE
:1015F000B0E0E8E3F0E080818D7F8C938C9189816D
:10160000882F90E080719070009749F0A8E3B0E0D7
:10161000E8E3F0E0808181608C938C9108C0A8E3BE
:10162000B0E0E8E3F0E080818E7F8C938C91ABE3B7
:10163000B0E0EBE3F0E08081877F8C930E94F70DB0
:101640008981882F90E088709070009749F0A8E316
:10165000B0E0E8E3F0E0808180618C938C9108C079
:10166000A8E3B0E0E8E3F0E080818F7E8C938C917A
:101670008981882F90E084709070009749F0A8E3EA
:10168000B0E0E8E3F0E0808184608C938C9108C046
:10169000A8E3B0E0E8E3F0E080818B7F8C938C914D
:1016A0008981882F90E082709070009749F0A8E3BC
:1016B000B0E0E8E3F0E0808182608C938C9108C018
:1016C000A8E3B0E0E8E3F0E080818D7F8C938C911B
:1016D0008981882F90E081709070882349F0A8E379
:1016E000B0E0E8E3F0E0808181608C938C9108C0E9
:1016F000A8E3B0E0E8E3F0E080818E7F8C938C91EA
:10170000ABE3B0E0EBE3F0E08081877F8C930E9455
:10171000F70D61960FB6F894DEBF0FBECDBFCF9127
:10172000DF910895DF93CF93CDB7DEB761970FB602
:10173000F894DEBF0FBECDBF8983898188234CF426
:10174000A8E3B0E0E8E3F0E0808180618C938C91C5
:1017500008C0A8E3B0E0E8E3F0E080818F7E8C93DE
:101760008C918981882F90E080749070009749F067
:10177000A8E3B0E0E8E3F0E0808184608C938C9192
:1017800008C0A8E3B0E0E8E3F0E080818B7F8C93B1
:101790008C918981882F90E080729070009749F039
:1017A000A8E3B0E0E8E3F0E0808182608C938C9164
:1017B00008C0A8E3B0E0E8E3F0E080818D7F8C937F
:1017C0008C918981882F90E080719070009749F00A
:1017D000A8E3B0E0E8E3F0E0808181608C938C9135
:1017E00008C0A8E3B0E0E8E3F0E080818E7F8C934E
:1017F0008C91ABE3B0E0EBE3F0E0808188608C9308
:101800000E94F70D8981882F90E088709070009772
:1018100049F0A8E3B0E0E8E3F0E0808180618C93D8
:101820008C9108C0A8E3B0E0E8E3F0E080818F7E0F
:101830008C938C918981882F90E0847090700097B0
:1018400049F0A8E3B0E0E8E3F0E0808184608C93A5
:101850008C9108C0A8E3B0E0E8E3F0E080818B7FE2
:101860008C938C918981882F90E082709070009782
:1018700049F0A8E3B0E0E8E3F0E0808182608C9377
:101880008C9108C0A8E3B0E0E8E3F0E080818D7FB0
:101890008C938C918981882F90E08170907088233F
:1018A00049F0A8E3B0E0E8E3F0E0808181608C9348
:1018B0008C9108C0A8E3B0E0E8E3F0E080818E7F7F
:1018C0008C938C91ABE3B0E0EBE3F0E08081886037
:1018D0008C930E94F70D61960FB6F894DEBF0FBE91
:1018E000CDBFCF91DF910895DF93CF9300D000D08B
:1018F000CDB7DEB79C838B831A8219823AC0898167
:101900009A8101969A838983EB81FC8120818B8166
:101910009C8101969C838B83822F0E94920B8981EC
:101920009A818431910521F481E060E00E94C50C28
:1019300089819A818832910529F482E060E00E94D1
:10194000C50C17C089819A818C33910529F483E0F5
:1019500060E00E94C50C0DC089819A818035910597
:1019600041F40E94FC0C80E060E00E94C50C1A82E9
:101970001982EB81FC818081882309F60F900F90FA
:101980000F900F90CF91DF910895DF93CF9300D008
:10199000CDB7DEB789836A838981882341F48A8140
:1019A000843128F58A8180580E94B00A20C089813C
:1019B000813041F48A818431D0F48A8180540E943C
:1019C000B00A15C08981823041F48A81843178F46B
:1019D0008A818C560E94B00A0AC08981833039F40A
:1019E0008A81843120F48A818C520E94B00A0F903F
:1019F0000F90CF91DF910895DF93CF93CDB7DEB7EE
:101A000081E00E94B00ACF91DF910895DF93CF93D8
:101A1000CDB7DEB729970FB6F894DEBF0FBECDBFA6
:101A20009987888700D000D000D0EDB7FEB73196F7
:101A3000CE0101969183808387EB90E0938382832C
:101A400088859985958384830E941F1E8DB79EB7D4
:101A500006960FB6F8949EBF0FBE8DBFCE010196BD
:101A60000E94740C29960FB6F894DEBF0FBECDBF4E
:101A7000CF91DF910895DF93CF93CDB7DEB7A897CD
:101A80000FB6F894DEBF0FBECDBF6F8F78A389A3CA
:101A90009AA36F8D78A189A19AA120E030E040E05F
:101AA00050E00E94C50318162CF42AEB30E038A74A
:101AB0002FA304C04BEB50E058A74FA38FA198A5CC
:101AC0009E878D876F8D78A189A19AA120E030E053
:101AD00040E050E00E94C50318164CF42F8D38A149
:101AE00049A15AA12BA33CA34DA35EA30BC08F8D8C
:101AF00098A1A9A1BAA19C01AD0150582BA33CA368
:101B00004DA35EA38BA19CA1ADA1BEA189879A879D
:101B1000AB87BC8769857A858B859C850E94B304D9
:101B2000DC01CB0198878F838F819885AA2797FD49
:101B3000A095BA2FBC01CD010E9455049B01AC01B8
:101B400069857A858B859C850E94C101DC01CB016A
:101B50008B839C83AD83BE836B817C818D819E81D1
:101B600020E030E44CE156E40E941F02DC01CB018E
:101B7000BC01CD010E94B304DC01CB019A838983AF
:101B8000ADB7BEB71A970FB6F894BEBF0FBEADBFC4
:101B9000EDB7FEB73196CE010F96918380838DEB22
:101BA00090E0938382838D859E85958384838F8146
:101BB00098859783868389819A81918780870E94FF
:101BC0001F1E2DB73EB7265F3F4F0FB6F8943EBF9E
:101BD0000FBE2DBFCE010F960E94740CA8960FB6B3
:101BE000F894DEBF0FBECDBFCF91DF910895DF9394
:101BF000CF93CDB7DEB72E970FB6F894DEBF0FBEEA
:101C0000CDBFABE3B0E0EBE3F0E080818B7F8C9362
:101C100080E090E0A0ECB0E48B879C87AD87BE8726
:101C20006B857C858D859E8520E030E04AE755E414
:101C30000E941F02DC01CB018F839887A987BA8796
:101C40006F81788589859A8520E030E040E85FE300
:101C50000E94250488232CF481E090E09E838D83EC
:101C60003FC06F81788589859A8520E03FEF4FE7F7
:101C700057E40E94C50318164CF56B857C858D854D
:101C80009E8520E030E040E251E40E941F02DC012A
:101C9000CB01BC01CD010E944900DC01CB019E8338
:101CA0008D830FC080E991E09C838B838B819C8125
:101CB0000197F1F79C838B838D819E8101979E8391
:101CC0008D838D819E81009769F714C06F8178851F
:101CD00089859A850E944900DC01CB019E838D8312
:101CE0008D819E819A83898389819A810197F1F7F9
:101CF0009A838983ABE3B0E0EBE3F0E0808184601A
:101D00008C932E960FB6F894DEBF0FBECDBFCF9149
:101D1000DF910895DF93CF9300D000D0CDB7DEB729
:101D20009B838A836C8319828C81882F90E008962C
:101D3000880F991F880F991F880F991F0E94B00A5A
:101D400019820EC08981282F30E08A819B81FC0195
:101D5000E20FF31F80810E94920B89818F5F89833C
:101D60008981883078F30F900F900F900F90CF916A
:101D7000DF910895DF93CF93CDB7DEB7A1E3B0E055
:101D8000E1E3F0E08081886E8C93A4E3B0E0E4E3CB
:101D9000F0E08081837C8C93A5E3B0E0E5E3F0E0A4
:101DA00080818C638C93E2E3F0E08FEF8083CF91AE
:101DB000DF910895DF93CF9300D000D00F92CDB77D
:101DC000DEB781E489831D821C82A6C0A2E3B0E055
:101DD000E2E3F0E08081582F20912F023091300211
:101DE00081E090E002C0880F991F2A95E2F7482F02
:101DF000209131023091320281E090E002C0880FE0
:101E0000991F2A95E2F7482B209133023091340232
:101E100081E090E002C0880F991F2A95E2F7482BD5
:101E2000209135023091360281E090E002C0880FA7
:101E3000991F2A95E2F7842B852B8C93A2E3B0E0BF
:101E4000E2E3F0E08081482F8C819D81880F991F0B
:101E5000FC01E15DFD4F2081318181E090E0022EA7
:101E600002C0880F991F0A94E2F7809584238C930F
:101E70001B821A8246C0E3E3F0E08081282F30E025
:101E80008A819B81880F991FFC01E95CFD4F80814D
:101E90009181A90102C0559547958A95E2F7CA013B
:101EA00081709070009741F5E3E3F0E08081282F86
:101EB00030E08A819B81880F991FFC01E95CFD4F0E
:101EC00080819181A90102C0559547958A95E2F7D5
:101ED000CA0181709070009739F38A819B812C81AF
:101EE0003D81880F991F880F991F820F931FFC0156
:101EF000E85BFD4F808189838A819B8101969B836A
:101F00008A838A819B81843091050CF4B4CF8C81C3
:101F10009D8101969D838C838C819D818430910568
:101F20000CF454CF89810F900F900F900F900F9069
:101F3000CF91DF910895DF93CF93CDB7DEB783E0E4
:101F400060E041E00E94C21282E060E041E00E9455
:101F5000C21285E061E041E00E94C21286E061E0C9
:101F600041E00E94C21283E060E041E00E94E6137B
:101F700082E060E041E00E94E61385E061E041E03C
:101F80000E94E61386E061E041E00E94E61380E0F3
:101F900061E041E00E94C21281E061E041E00E9404
:101FA000C21282E061E041E00E94C21284E061E07E
:101FB00041E00E94C21280E061E040E00E94E6132E
:101FC00081E061E040E00E94E61382E061E040E0F1
:101FD0000E94E61384E061E040E00E94E613CF91A6
:101FE000DF910895DF93CF93CDB7DEB7EC970FB6AF
:101FF000F894DEBF0FBECDBF9CAF8BAF1AAE19AE4B
:1020000089AD9AAD27E28031920708F0B2C283E031
:1020100060E040E00E94E6138BAD9CAD2AE030E02A
:10202000B9010E94D41D9AAF89AF89AD982F9170E4
:1020300080E061E0492F0E94E61389AD982F9270ED
:1020400081E061E0492F0E94E61389AD982F9470DA
:1020500082E061E0492F0E94E61389AD982F9870C5
:1020600084E061E0492F0E94E61380E090E0A0E266
:10207000B1E48DAB9EABAFABB8AF6DA97EA98FA914
:1020800098AD20E030E04AE755E40E941F02DC01F1
:10209000CB0189AB9AABABABBCAB69A97AA98BA9D5
:1020A0009CA920E030E040E85FE30E9425048823FB
:1020B0002CF481E090E098AB8FA73FC069A97AA982
:1020C0008BA99CA920E03FEF4FE757E40E94C5038E
:1020D00018164CF56DA97EA98FA998AD20E030E0C7
:1020E00040E251E40E941F02DC01CB01BC01CD01A2
:1020F0000E944900DC01CB0198AB8FA70FC080E99B
:1021000091E09EA78DA78DA59EA50197F1F79EA7AB
:102110008DA78FA598A9019798AB8FA78FA598A990
:10212000009769F714C069A97AA98BA99CA90E9494
:102130004900DC01CB0198AB8FA78FA598A99CA77C
:102140008BA78BA59CA50197F1F79CA78BA783E094
:1021500060E041E00E94E61382E060E040E00E941F
:10216000E6138BAD9CAD2AE030E0B9010E94D41D8E
:10217000CB019CAF8BAF8BAD9CAD2AE030E0B901B9
:102180000E94D41D9AAF89AF89AD982F917080E0DD
:1021900061E0492F0E94E61389AD982F927081E08B
:1021A00061E0492F0E94E61389AD982F947082E078
:1021B00061E0492F0E94E61389AD982F987084E062
:1021C00061E0492F0E94E61380E090E0A0E2B1E4D4
:1021D0008FA398A7A9A7BAA76FA178A589A59AA543
:1021E00020E030E04AE755E40E941F02DC01CB0109
:1021F0008BA39CA3ADA3BEA36BA17CA18DA19EA12B
:1022000020E030E040E85FE30E94250488232CF4BE
:1022100081E090E09AA389A33FC06BA17CA18DA12E
:102220009EA120E03FEF4FE757E40E94C503181638
:102230004CF56FA178A589A59AA520E030E040E291
:1022400051E40E941F02DC01CB01BC01CD010E94C0
:102250004900DC01CB019AA389A30FC080E991E07A
:1022600098A38F8F8F8D98A10197F1F798A38F8FE7
:1022700089A19AA101979AA389A389A19AA10097FC
:1022800069F714C06BA17CA18DA19EA10E94490099
:10229000DC01CB019AA389A389A19AA19E8F8D8F7E
:1022A0008D8D9E8D0197F1F79E8F8D8F82E060E07E
:1022B00041E00E94E61385E061E040E00E94E61301
:1022C0008BAD9CAD2AE030E0B9010E94D41DCB015A
:1022D0009CAF8BAF8BAD9CAD2AE030E0B9010E9482
:1022E000D41D9AAF89AF89AD982F917080E061E0DD
:1022F000492F0E94E61389AD982F927081E061E02A
:10230000492F0E94E61389AD982F947082E061E016
:10231000492F0E94E61389AD982F987084E061E000
:10232000492F0E94E61380E090E0A0E2B1E4898F9B
:102330009A8FAB8FBC8F698D7A8D8B8D9C8D20E0B1
:1023400030E04AE755E40E941F02DC01CB018D8B8F
:102350009E8BAF8BB88F6D897E898F89988D20E099
:1023600030E040E85FE30E94250488232CF481E0FC
:1023700090E09C8B8B8B3FC06D897E898F89988D77
:1023800020E03FEF4FE757E40E94C50318164CF5D5
:10239000698D7A8D8B8D9C8D20E030E040E251E498
:1023A0000E941F02DC01CB01BC01CD010E9449004B
:1023B000DC01CB019C8B8B8B0FC080E991E09A8B69
:1023C000898B89899A890197F1F79A8B898B8B89F7
:1023D0009C8901979C8B8B8B8B899C89009769F7D3
:1023E00014C06D897E898F89988D0E944900DC0117
:1023F000CB019C8B8B8B8B899C89988B8F878F854E
:1024000098890197F1F7988B8F8785E061E041E02B
:102410000E94E61386E061E040E00E94E6138BAD87
:102420009CAD2AE030E0B9010E94D41DCB019CAFE5
:102430008BAF8BAD9CAD2AE030E0B9010E94D41D7A
:102440009AAF89AF89AD982F917080E061E0492FF4
:102450000E94E61389AD982F927081E061E0492FC8
:102460000E94E61389AD982F947082E061E0492FB5
:102470000E94E61389AD982F987084E061E0492F9F
:102480000E94E61380E090E0A0E2B1E48B879C8795
:10249000AD87BE876B857C858D859E8520E030E08D
:1024A0004AE755E40E941F02DC01CB018F83988725
:1024B000A987BA876F81788589859A8520E030E081
:1024C00040E85FE30E94250488232CF481E090E03B
:1024D0009E838D833FC06F81788589859A8520E0B2
:1024E0003FEF4FE757E40E94C50318164CF56B8584
:1024F0007C858D859E8520E030E040E251E40E949D
:102500001F02DC01CB01BC01CD010E944900DC01AE
:10251000CB019E838D830FC080E991E09C838B83E8
:102520008B819C810197F1F79C838B838D819E81A8
:1025300001979E838D838D819E81009769F714C0DA
:102540006F81788589859A850E944900DC01CB01DD
:102550009E838D838D819E819A83898389819A81CF
:102560000197F1F79A83898386E061E041E00E9458
:10257000E613EC960FB6F894DEBF0FBECDBFCF9139
:10258000DF910895DF93CF9300D000D00F92CDB7A5
:10259000DEB789836A834B838A81282F30E03D83AD
:1025A0002C838C819D818130910509F443C02C815D
:1025B0003D81223031052CF48C819D81009771F092
:1025C000BCC02C813D812230310509F45FC08C8173
:1025D0009D818330910509F485C0AFC08B81813026
:1025E000A1F4AAE3B0E0EAE3F0E08081482F89811A
:1025F000282F30E081E090E0022E02C0880F991F62
:102600000A94E2F7842B8C9398C0AAE3B0E0EAE343
:10261000F0E08081482F8981282F30E081E090E030
:10262000022E02C0880F991F0A94E2F78095842336
:102630008C9383C08B818130A1F4A7E3B0E0E7E302
:10264000F0E08081482F8981282F30E081E090E000
:10265000022E02C0880F991F0A94E2F7842B8C93F4
:102660006CC0A7E3B0E0E7E3F0E08081482F898108
:10267000282F30E081E090E0022E02C0880F991FE1
:102680000A94E2F7809584238C9357C08B81813024
:10269000A1F4A4E3B0E0E4E3F0E08081482F898175
:1026A000282F30E081E090E0022E02C0880F991FB1
:1026B0000A94E2F7842B8C9340C0A4E3B0E0E4E3F7
:1026C000F0E08081482F8981282F30E081E090E080
:1026D000022E02C0880F991F0A94E2F78095842386
:1026E0008C932BC08B818130A1F4A1E3B0E0E1E3B6
:1026F000F0E08081482F8981282F30E081E090E050
:10270000022E02C0880F991F0A94E2F7842B8C9343
:1027100014C0A1E3B0E0E1E3F0E08081482F8981BB
:10272000282F30E081E090E0022E02C0880F991F30
:102730000A94E2F7809584238C930F900F900F906A
:102740000F900F90CF91DF910895DF93CF9300D03A
:1027500000D0CDB7DEB789836A838981282F30E026
:102760003C832B838B819C8181309105D1F02B811F
:102770003C81223031052CF48B819C81009761F0E3
:102780001EC02B813C812230310581F08B819C81E0
:102790008330910581F013C0EAE3F0E08A81808301
:1027A0000EC0E7E3F0E08A81808309C0E4E3F0E053
:1027B0008A81808304C0E1E3F0E08A8180830F9006
:1027C0000F900F900F90CF91DF910895DF93CF93EB
:1027D00000D000D00F92CDB7DEB789836A834B83D8
:1027E0008A81282F30E03D832C838C819D8181302C
:1027F000910509F443C02C813D81223031052CF430
:102800008C819D81009771F0BCC02C813D8122306C
:10281000310509F45FC08C819D818330910509F4F5
:1028200085C0AFC08B818130A1F4ABE3B0E0EBE3B6
:10283000F0E08081482F8981282F30E081E090E00E
:10284000022E02C0880F991F0A94E2F7842B8C9302
:1028500098C0ABE3B0E0EBE3F0E08081482F8981E2
:10286000282F30E081E090E0022E02C0880F991FEF
:102870000A94E2F7809584238C9383C08B81813006
:10288000A1F4A8E3B0E0E8E3F0E08081482F89817B
:10289000282F30E081E090E0022E02C0880F991FBF
:1028A0000A94E2F7842B8C936CC0A8E3B0E0E8E3D1
:1028B000F0E08081482F8981282F30E081E090E08E
:1028C000022E02C0880F991F0A94E2F78095842394
:1028D0008C9357C08B818130A1F4A5E3B0E0E5E390
:1028E000F0E08081482F8981282F30E081E090E05E
:1028F000022E02C0880F991F0A94E2F7842B8C9352
:1029000040C0A5E3B0E0E5E3F0E08081482F898195
:10291000282F30E081E090E0022E02C0880F991F3E
:102920000A94E2F7809584238C932BC08B818130AD
:10293000A1F4A2E3B0E0E2E3F0E08081482F8981D6
:10294000282F30E081E090E0022E02C0880F991F0E
:102950000A94E2F7842B8C9314C0A2E3B0E0E2E384
:10296000F0E08081482F8981282F30E081E090E0DD
:10297000022E02C0880F991F0A94E2F780958423E3
:102980008C930F900F900F900F900F90CF91DF913D
:102990000895DF93CF9300D000D0CDB7DEB7898301
:1029A0006A838981282F30E03C832B838B819C8133
:1029B00081309105D1F02B813C81223031052CF4FE
:1029C0008B819C81009761F01EC02B813C8122305D
:1029D000310581F08B819C818330910581F013C09A
:1029E000EBE3F0E08A8180830EC0E8E3F0E08A81C7
:1029F000808309C0E5E3F0E08A81808304C0E2E3DC
:102A0000F0E08A8180830F900F900F900F90CF910C
:102A1000DF910895DF93CF9300D000D00F92CDB710
:102A2000DEB78A836B838B81282F30E03D832C8334
:102A30008C819D818130910539F12C813D8122303D
:102A400031052CF48C819D81009761F052C02C815E
:102A50003D812230310551F18C819D81833091057A
:102A6000B9F147C0E9E3F0E08081482F8A81282F3F
:102A700030E081E090E0022E02C0880F991F0A9496
:102A8000E2F78423898335C0E6E3F0E08081482FB4
:102A90008A81282F30E081E090E0022E02C0880F6A
:102AA000991F0A94E2F78423898323C0E3E3F0E0CB
:102AB0008081482F8A81282F30E081E090E0022E2B
:102AC00002C0880F991F0A94E2F78423898311C0FA
:102AD000E0E3F0E08081482F8A81282F30E081E018
:102AE00090E0022E02C0880F991F0A94E2F7842317
:102AF000898389810F900F900F900F900F90CF9145
:102B0000DF910895DF93CF9300D000D0CDB7DEB72B
:102B10008A838A81282F30E03C832B838B819C81A0
:102B200081309105D1F02B813C81223031052CF48C
:102B30008B819C81009761F01EC02B813C812230EB
:102B4000310581F08B819C818330910581F013C028
:102B5000E9E3F0E0808189830EC0E6E3F0E0808164
:102B6000898309C0E3E3F0E08081898304C0E0E366
:102B7000F0E08081898389810F900F900F900F90F2
:102B8000CF91DF910895DF93CF9300D000D0CDB7E0
:102B9000DEB789836A838A81282F30E03C832B83C8
:102BA0008B819C818130910549F12B813C812230C0
:102BB00031052CF48B819C81009761F05AC02B81E8
:102BC0003C812230310571F18B819C8183309105EC
:102BD000E9F14FC0ABE3B0E0EBE3F0E08081482FD8
:102BE0008981282F30E081E090E0022E02C0880F1A
:102BF000991F0A94E2F784278C933BC0A8E3B0E0C6
:102C0000E8E3F0E08081482F8981282F30E081E0DF
:102C100090E0022E02C0880F991F0A94E2F78427E1
:102C20008C9327C0A5E3B0E0E5E3F0E08081482F76
:102C30008981282F30E081E090E0022E02C0880FC9
:102C4000991F0A94E2F784278C9313C0A2E3B0E0A3
:102C5000E2E3F0E08081482F8981282F30E081E095
:102C600090E0022E02C0880F991F0A94E2F7842791
:102C70008C930F900F900F900F90CF91DF9108954C
:102C8000DF93CF93CDB7DEB72A970FB6F894DEBFA8
:102C90000FBECDBF89836A838981282F30E03A87B0
:102CA000298789859A858630910569F029853A8535
:102CB0002730310509F462C089859A8585309105F0
:102CC00009F4B7C0D3C08A81282F30E038872F831A
:102CD0008F8198858130910599F12F813885223037
:102CE00031052CF48F8198850097C9F1BFC02F81E1
:102CF00038852230310531F08F81988583309105F8
:102D000081F0B4C0A5E5B0E0E5E5F0E080818E7F1C
:102D10008C93A5E5B0E0E5E5F0E080818D7F8C93B4
:102D2000A5C0A5E5B0E0E5E5F0E0808181608C9389
:102D3000A5E5B0E0E5E5F0E080818D7F8C9396C05D
:102D4000A5E5B0E0E5E5F0E080818E7F8C93A5E518
:102D5000B0E0E5E5F0E0808182608C9387C0A5E576
:102D6000B0E0E5E5F0E0808181608C93A5E5B0E01E
:102D7000E5E5F0E0808182608C9378C08A81282F1D
:102D800030E03E832D838D819E818130910599F1C4
:102D90002D813E81223031052CF48D819E8100975A
:102DA000C9F164C02D813E812230310531F08D8121
:102DB0009E818330910581F059C0A5E5B0E0E5E53D
:102DC000F0E080818B7F8C93A5E5B0E0E5E5F0E055
:102DD0008081877F8C934AC0A5E5B0E0E5E5F0E00F
:102DE000808184608C93A5E5B0E0E5E5F0E080812A
:102DF000877F8C933BC0A5E5B0E0E5E5F0E08081FE
:102E00008B7F8C93A5E5B0E0E5E5F0E080818860FC
:102E10008C932CC0A5E5B0E0E5E5F0E0808184600E
:102E20008C93A5E5B0E0E5E5F0E0808188608C93C7
:102E30001DC08A81282F30E03C832B838B819C81AD
:102E4000009769F02B813C812130310579F4A4E5AC
:102E5000B0E0E4E5F0E080818F7B8C9307C0A4E5CF
:102E6000B0E0E4E5F0E0808180648C93AFE5B0E011
:102E7000EFE5F0E0808180688C93ABE5B0E0EBE5B6
:102E8000F0E08081482F8981282F30E081E090E0B8
:102E9000022E02C0880F991F0A94E2F7842B8C93AC
:102EA0002A960FB6F894DEBF0FBECDBFCF91DF914B
:102EB0000895DF93CF930F92CDB7DEB78983AFE547
:102EC000B0E0EFE5F0E080818F778C93ABE5B0E088
:102ED000EBE5F0E08081482F8981282F30E081E008
:102EE00090E0022E02C0880F991F0A94E2F78095A5
:102EF00084238C930F90CF91DF910895DF93CF932C
:102F000000D00F92CDB7DEB789837B836A83898136
:102F1000882F90E0880F991FFC01E859FD4F8A81A6
:102F20009B81918380830F900F900F90CF91DF91C1
:102F300008951F920F920FB60F9211242F933F9373
:102F40004F935F936F937F938F939F93AF93BF93B1
:102F5000EF93FF93DF93CF93CDB7DEB7E091680295
:102F6000F09169020995CF91DF91FF91EF91BF91A7
:102F7000AF919F918F917F916F915F914F913F9111
:102F80002F910F900FBE0F901F9018951F920F92C8
:102F90000FB60F9211242F933F934F935F936F932C
:102FA0007F938F939F93AF93BF93EF93FF93DF93A1
:102FB000CF93CDB7DEB7E0916A02F0916B0209952D
:102FC000CF91DF91FF91EF91BF91AF919F918F9141
:102FD0007F916F915F914F913F912F910F900FBE15
:102FE0000F901F9018951F920F920FB60F921124F9
:102FF0002F933F934F935F936F937F938F939F9301
:10300000AF93BF93EF93FF93DF93CF93CDB7DEB72B
:10301000E0916C02F0916D020995CF91DF91FF91E3
:10302000EF91BF91AF919F918F917F916F915F9140
:103030004F913F912F910F900FBE0F901F901895B9
:10304000DF93CF93CDB7DEB7E0E2F0E088E4808392
:10305000E1E2F0E01082CF91DF910895DF93CF930A
:10306000CDB7DEB7E6E5F0E084EA8083E6E5F0E0A0
:1030700080818823DCF7CF91DF910895DF93CF9390
:103080000F92CDB7DEB78983E3E2F0E089818083D8
:10309000E6E5F0E084E88083E6E5F0E080818823DF
:1030A000DCF70F90CF91DF910895DF93CF930F92CC
:1030B000CDB7DEB789838981882329F0E6E5F0E082
:1030C00084EC808304C0E6E5F0E084E88083E6E5F4
:1030D000F0E080818823DCF7E3E2F0E080810F906C
:1030E000CF91DF910895DF93CF93CDB7DEB7689787
:1030F0000FB6F894DEBF0FBECDBFE6E5F0E084E981
:10310000808380E090E0A8ECB2E48D8B9E8BAF8B47
:10311000B88F6D897E898F89988D2BEA3AEA4AEAC1
:1031200050E40E941F02DC01CB01898B9A8BAB8B90
:10313000BC8B69897A898B899C8920E030E040E8E2
:103140005FE30E94250488231CF481E0888B91C0F2
:1031500069897A898B899C8920E030E04FE753E4C4
:103160000E94C50318160CF07BC06D897E898F897B
:10317000988D20E030E04AE754E40E941903DC0116
:10318000CB018C879D87AE87BF876C857D858E85BB
:103190009F8520E030E04AE755E40E941F02DC01F1
:1031A000CB0188879987AA87BB87688579858A85B7
:1031B0009B8520E030E040E85FE30E9425048823FF
:1031C0002CF481E090E09F838E833FC068857985F1
:1031D0008A859B8520E03FEF4FE757E40E94C503B7
:1031E00018164CF56C857D858E859F8520E030E036
:1031F00040E251E40E941F02DC01CB01BC01CD0181
:103200000E944900DC01CB019F838E830FC080E9BF
:1032100091E09D838C838C819D810197F1F79D8343
:103220008C838E819F8101979F838E838E819F8166
:10323000009769F724C0688579858A859B850E94F7
:103240004900DC01CB019F838E838E819F819B830C
:103250008A838A819B810197F1F79B838A830FC0C0
:1032600069897A898B899C890E944900DC01CB019C
:10327000888B8889898389818A95F1F78983689603
:103280000FB6F894DEBF0FBECDBFCF91DF9108958A
:10329000DF93CF930F92CDB7DEB78983E2E2F0E000
:1032A000898180830F90CF91DF910895DF93CF9331
:1032B0000F92CDB7DEB78983A6E5B0E0E6E5F0E092
:1032C000808185648C93E6E5F0E080818823DCF7DB
:1032D000E1E2F0E080818036D9F7A6E5B0E0E6E5EE
:1032E000F0E0808185648C93E6E5F0E080818823BE
:1032F000DCF7E1E2F0E080818038D9F7E3E2F0E04A
:1033000080810F90CF91DF910895DF93CF9300D00C
:10331000CDB7DEB789836A8399818A81890F0E943C
:103320003E188A81882329F4E1E2F0E08081883127
:10333000D9F70F900F90CF91DF910895DF93CF933E
:10334000CDB7DEB76C970FB6F894DEBF0FBECDBF1A
:103350000E94FC0C80916E0290916F02009709F41C
:10336000ACC080917902682F70E080917A02282F9A
:1033700030E080917B02482F50E08DB79EB70A97CE
:103380000FB6F8949EBF0FBE8DBFEDB7FEB7319656
:103390008BE892E09183808387EC90E09383828333
:1033A0007583648337832683518740870E941F1E5D
:1033B0008DB79EB70A960FB6F8949EBF0FBE8DBF0D
:1033C00080E062E00E94C50C8BE892E00E94740CE1
:1033D00080E090E0AAE7B4E4898F9A8FAB8FBC8F2E
:1033E000698D7A8D8B8D9C8D20E030E04AE755E425
:1033F0000E941F02DC01CB018D8B9E8BAF8BB88F9F
:103400006D897E898F89988D20E030E040E85FE308
:103410000E94250488232CF481E090E09C8B8B8B08
:103420003FC06D897E898F89988D20E03FEF4FE7FF
:1034300057E40E94C50318164CF5698D7A8D8B8D63
:103440009C8D20E030E040E251E40E941F02DC014C
:10345000CB01BC01CD010E944900DC01CB019C8B5A
:103460008B8B0FC080E991E09A8B898B89899A892F
:103470000197F1F79A8B898B8B899C8901979C8B9B
:103480008B8B8B899C89009769F714C06D897E8925
:103490008F89988D0E944900DC01CB019C8B8B8B1E
:1034A0008B899C89988B8F878F8598890197F1F7F5
:1034B000988B8F870E94FC0C7CC080E062E00E94A9
:1034C000C50C80EF90E00E94740C80E090E0AAE7C9
:1034D000B4E48B879C87AD87BE876B857C858D85A3
:1034E0009E8520E030E04AE755E40E941F02DC019F
:1034F000CB018F839887A987BA876F817885898563
:103500009A8520E030E040E85FE30E9425048823AC
:103510002CF481E090E09E838D833FC06F8178859D
:1035200089859A8520E03FEF4FE757E40E94C50365
:1035300018164CF56B857C858D859E8520E030E0E6
:1035400040E251E40E941F02DC01CB01BC01CD012D
:103550000E944900DC01CB019E838D830FC080E96E
:1035600091E09C838B838B819C810197F1F79C83F5
:103570008B838D819E8101979E838D838D819E811A
:10358000009769F714C06F81788589859A850E94B4
:103590004900DC01CB019E838D838D819E819A83BE
:1035A000898389819A810197F1F79A8389830E949F
:1035B000FC0C6C960FB6F894DEBF0FBECDBFCF915A
:1035C000DF910895DF93CF93CDB7DEB72E970FB677
:1035D000F894DEBF0FBECDBF1092790210927A022E
:1035E00010927B020E94FC0C80E062E00E94C50CFD
:1035F00089EF90E00E94740C80E090E0AAE7B4E4C8
:103600008B879C87AD87BE876B857C858D859E85E6
:1036100020E030E04AE755E40E941F02DC01CB01C4
:103620008F839887A987BA876F81788589859A85DE
:1036300020E030E040E85FE30E94250488232CF47A
:1036400081E090E09E838D833FC06F81788589857E
:103650009A8520E03FEF4FE757E40E94C503181614
:103660004CF56B857C858D859E8520E030E040E2C1
:1036700051E40E941F02DC01CB01BC01CD010E947C
:103680004900DC01CB019E838D830FC080E991E06E
:103690009C838B838B819C810197F1F79C838B8327
:1036A0008D819E8101979E838D838D819E81009760
:1036B00069F714C06F81788589859A850E944900D1
:1036C000DC01CB019E838D838D819E819A838983CA
:1036D00089819A810197F1F79A8389830E94FC0C72
:1036E00010926F0210926E022E960FB6F894DEBF03
:1036F0000FBECDBFCF91DF910895DF93CF93CDB7AC
:10370000DEB72E970FB6F894DEBF0FBECDBF9091F7
:10371000790280918202981709F0C2C090917A02D2
:1037200080918302981709F0BBC090917B02809131
:103730008402981709F0B4C087E061E041E00E947C
:10374000E6130E94FC0C80E062E00E94C50C88E059
:1037500091E00E94740C9FC00E94DA0E8093BD021B
:103760008091BD028D3351F487E061E040E00E941A
:10377000E6130E94FC0C0E94E21A8DC08091BD02EB
:103780008B3209F088C080917A028F5F80937A0231
:1037900087E061E040E00E94E6130E94FC0C80E0BC
:1037A00062E00E94C50C85E191E00E94740C80E00B
:1037B00090E0AAE7B4E48B879C87AD87BE876B85D2
:1037C0007C858D859E8520E030E04AE755E40E94A7
:1037D0001F02DC01CB018F839887A987BA876F818D
:1037E000788589859A8520E030E040E85FE30E9493
:1037F000250488232CF481E090E09E838D833FC0D4
:103800006F81788589859A8520E03FEF4FE757E4FF
:103810000E94C50318164CF56B857C858D859E85A9
:1038200020E030E040E251E40E941F02DC01CB01C5
:10383000BC01CD010E944900DC01CB019E838D8338
:103840000FC080E991E09C838B838B819C810197E1
:10385000F1F79C838B838D819E8101979E838D835D
:103860008D819E81009769F714C06F817885898565
:103870009A850E944900DC01CB019E838D838D8156
:103880009E819A83898389819A810197F1F79A832E
:1038900089830E94FC0C8091BD02813409F45CCFC5
:1038A0002E960FB6F894DEBF0FBECDBFCF91DF913D
:1038B0000895DF93CF93CDB7DEB7E9970FB6F894AD
:1038C000DEBF0FBECDBF29E732E03EAB2DAB82E8B5
:1038D00092E098AF8FAB99E099AFEFA9F8AD008077
:1038E0002FA938AD2F5F3F4F38AF2FABEDA9FEA901
:1038F00000822DA93EA92F5F3F4F3EAB2DAB39ADC6
:10390000315039AF89AD882341F789E792E02EEB3A
:1039100032E0B9019E012F5F3F4FA9010E94570875
:103920000E94DA0E8093BD028091BD02E82FF0E084
:10393000FCABEBAB2BA93CA92633310509F44FC0F6
:103940008BA99CA9873391058CF4EBA9FCA9E433DE
:10395000F105F9F02BA93CA9253331053CF58BA9DC
:103960009CA98A32910509F4ACC0BAC0EBA9FCA9A4
:10397000E833F10509F466C02BA93CA928333105C9
:103980000CF452C08BA99CA98933910509F474C029
:10399000A7C0809179028F5F80937902809179022C
:1039A000843209F09DC0109279029AC080917A0207
:1039B0008F5F80937A0280917A028A3509F090C0F5
:1039C00010927A02809179028F5F809379028091C0
:1039D0007902843209F084C01092790281C080910A
:1039E0007B028F5F80937B0280917B028A3509F096
:1039F00077C010927B0280917A028F5F80937A0267
:103A000080917A028A3509F06BC010927A02809117
:103A100079028F5F8093790280917902843209F074
:103A20005FC0109279025CC08091790281508093CE
:103A30007902809179028F3F09F052C083E280932E
:103A400079024EC080917A02815080937A028091EF
:103A50007A028F3F09F044C08091790281508093AF
:103A60007902809179028F3F19F483E28093790281
:103A700089E580937A0234C080917B0281508093E3
:103A80007B0280917B028F3F59F580917A028150B1
:103A900080937A0280917A028F3F79F48091790243
:103AA000815080937902809179028F3F19F483E2EB
:103AB0008093790289E580937A0289E580937B027D
:103AC0000FC081E090E090936F0280936E02E996C0
:103AD0000FB6F894DEBF0FBECDBFCF91DF91089532
:103AE00080E062E00E94C50C89E792E02EEB32E0B4
:103AF000B9019E012F5F3F4FA9010E945708CE01D7
:103B000001960E94740C0CCFDF93CF9300D0CDB7F9
:103B1000DEB70E94FC060E947E090E94BA0E87E072
:103B200061E041E00E94C2120E94FC0C8FE392E02F
:103B30000E9491070E94DA0E8093BD028091BD021F
:103B4000282F30E03A83298389819A818133910536
:103B500071F029813A812F33310531F089819A81C1
:103B60008033910539F008C00E94E21A05C00E9416
:103B7000591C02C00E949E1982E892E00E94FF0731
:103B800082E892E02EEB32E04BE852E0B9010E946D
:103B9000570880E062E00E94C50C8BE892E00E942A
:103BA000740C0E947D1BC6CFAA1BBB1B51E107C032
:103BB000AA1FBB1FA617B70710F0A61BB70B881FBD
:103BC000991F5A95A9F780959095BC01CD0108954C
:103BD0002F923F924F925F926F927F928F929F921D
:103BE000AF92BF92CF92DF92EF92FF920F931F930B
:103BF000CF93DF93CDB7DEB7CA1BDB0B0FB6F894BC
:103C0000DEBF0FBECDBF09942A88398848885F84FB
:103C10006E847D848C849B84AA84B984C884DF806C
:103C2000EE80FD800C811B81AA81B981CE0FD11D50
:103C30000FB6F894DEBF0FBECDBFED010895AEE024
:103C4000B0E0E5E2FEE10C94F61D0D891E8986E0E8
:103C50008C831A8309838FEF9FE79E838D839E0158
:103C6000275E3F4FCE0101966F89788DA9010E9492
:103C7000431E2F813885020F131FF80110822E96E4
:103C8000E4E00C94121EABE0B0E0E9E4FEE10C9439
:103C9000E81D3C012B015A01FC0117821682838129
:103CA00081FD03C06FEF7FEFC6C19AE0892E1E0130
:103CB0000894211C311CF3012381F20123FD85911D
:103CC00023FF81912F01882309F4B2C1853239F491
:103CD00023FD859123FF81912F01853229F490E006
:103CE000B3010E943620E7CF982FFF24EE249924B9
:103CF000FFE1FF15D0F09B3269F09C3228F490323E
:103D000059F0933291F40EC09D3249F0903369F42A
:103D100041E024C052E0F52A84E0F82A28C098E067
:103D2000F92A25C0E0E1FE2A22C0F7FC29C0892F2C
:103D300080538A3070F4F6FE05C0989C902C1124B4
:103D4000980E15C0E89CE02C1124E80EF0E2FF2A42
:103D50000EC09E3229F4F6FC6BC140E4F42A07C081
:103D60009C3619F450E8F52A02C0983649F4F2015D
:103D700023FD959123FF91912F01992309F0B8CF4D
:103D8000892F8554833018F08052833038F444E012
:103D900050E0A40EB51E5FE359830FC0933631F097
:103DA000933779F0933509F056C020C0F501808132
:103DB000898342E050E0A40EB51E610101E010E0ED
:103DC00012C0F501C080D180F6FC03C06FEF7FEF19
:103DD00002C0692D70E042E050E0A40EB51EC6019D
:103DE0000E942B208C015FE7F52214C0F501C080F2
:103DF000D180F6FC03C06FEF7FEF02C0692D70E049
:103E000042E050E0A40EB51EC6010E9420208C01A5
:103E100050E8F52AF3FE07C01AC080E290E0B30133
:103E20000E943620EA948E2D90E008171907A8F317
:103E30000EC0F601F7FC8591F7FE81916F0190E0CD
:103E4000B3010E943620E110EA94015010400115A0
:103E5000110579F7EAC0943611F0993669F5F7FE45
:103E600008C0F501208131814281538184E090E0D6
:103E70000AC0F501808191819C01442737FD40955E
:103E8000542F82E090E0A80EB91E9FE6F92257FF5A
:103E900009C050954095309521953F4F4F4F5F4F4A
:103EA000E0E8FE2ACA01B901A1012AE030E00E943F
:103EB0006220D82ED21840C0953729F41F2D1F7EBE
:103EC0002AE030E01DC01F2D197F9F3661F090372A
:103ED00020F4983509F0ACC00FC0903739F098370E
:103EE00009F0A6C004C028E030E00AC0106114FD4B
:103EF000146020E130E004C014FD166020E132E0DF
:103F000017FF08C0F501608171818281938144E0CF
:103F100050E008C0F50180819181BC0180E090E013
:103F200042E050E0A40EB51EA1010E946220D82EEE
:103F3000D2188FE7F82EF122F6FE0BC05EEFF522C5
:103F4000D91438F4F4FE07C0F2FC05C08FEEF82255
:103F500002C01D2D01C0192DF4FE0DC0FE01ED0D96
:103F6000F11D8081803319F499EEF92208C01F5F9A
:103F7000F2FE05C003C08F2D867809F01F5F0F2D5C
:103F8000F3FC14C0F0FE0FC01E1510F09D2C0BC0EA
:103F90009D2C9E0C911A1E2D06C080E290E0B3016C
:103FA0000E9436201F5F1E15C0F304C01E1510F4BA
:103FB000E11A01C0EE2404FF0FC080E390E0B301DA
:103FC0000E94362002FF1DC001FD03C088E790E07B
:103FD0000EC088E590E00BC0802F867891F001FF3D
:103FE00002C08BE201C080E2F7FC8DE290E0B301F9
:103FF0000E94362006C080E390E0B3010E94362084
:104000009A94D914C0F3DA94F101ED0DF11D808179
:1040100090E0B3010E943620DD20A9F706C080E2BF
:1040200090E0B3010E943620EA94EE20C1F743CE1F
:10403000F30166817781CB012B96E2E10C94041E9B
:10404000FC010590615070400110D8F78095909563
:104050008E0F9F1F0895FC01615070400190011068
:10406000D8F7809590958E0F9F1F08950F931F93FB
:10407000CF93DF938C01EB018B8181FF1BC082FF0B
:104080000DC02E813F818C819D812817390764F4F2
:10409000E881F9810193F983E88306C0E885F98511
:1040A000802F0995892B31F48E819F8101969F8302
:1040B0008E8302C00FEF1FEFC801DF91CF911F91D8
:1040C0000F910895FA01AA27283051F1203181F18A
:1040D000E8946F936E7F6E5F7F4F8F4F9F4FAF4F10
:1040E000B1E03ED0B4E03CD0670F781F891F9A1F23
:1040F000A11D680F791F8A1F911DA11D6A0F711DD7
:10410000811D911DA11D20D009F468943F912AE0E2
:10411000269F11243019305D3193DEF6CF010895CA
:10412000462F4770405D4193B3E00FD0C9F7F6CFFB
:10413000462F4F70405D4A3318F0495D31FD4052C3
:10414000419302D0A9F7EACFB4E0A6959795879559
:1041500077956795BA95C9F7009761057105089538
:104160009B01AC010A2E06945795479537952795E4
:10417000BA95C9F7620F731F841F951FA01D08957C
:04418000F894FFCFE1
:1041840000504D00414D0054696D65203A20252EA4
:1041940032783A252E32783A252E32782025327319
:1041A400002020005341540053554E004D4F4E0003
:1041B400545545005745440054485500465249005B
:1041C40044617465203A20252E32782F252E3278CA
:1041D4002F257820257300256400002D00257325E4
:1041E400642E2530346400416C61726D2069732043
:1041F40073657420666F723A2020202020202025C9
:104204002E3278203A252E3278203A252E32780024
:104214004E6F20416C61726D00416C61726D20447F
:10422400697361626C656400414C41524D2049538D
:104234002053455400536E6F6F7A696E6720616C2A
:1042440061726D2E2E2E00000000000000000000A0
:104254000102020303030304040404040404040524
:1042640005050505050505050505050505050506F9
:1042740006060606060606060606060606060606DA
:1042840006060606060606060606060606060607C9
:1042940007070707070707070707070707070707AA
:1042A400070707070707070707070707070707079A
:1042B400070707070707070707070707070707078A
:1042C4000707070707070707070707070707070879
:1042D400080808080808080808080808080808085A
:1042E400080808080808080808080808080808084A
:1042F400080808080808080808080808080808083A
:104304000808080808080808080808080808080829
:104314000808080808080808080808080808080819
:104324000808080808080808080808080808080809
:1043340008080808080808080808080808080808F9
:1043440008080808080808080808080808080807EA
:10435400000600050003000500040003000200231A
:1043640059301009230020063738392F3435362ABE
:104374003132332D3F303D2B3738392F3435362AFF
:084384003132332D3F303D2B97
:00000001FF
